:100000000C942A000C9434000C94E0020C943400FC
:100010000C9434000C9434000C9434000C94340090
:100020000C9434000C9434000C9434000C94340080
:100030000C9434000C9434000C9434000C94340070
:100040000C9434000C9434000C9434000C94340060
:100050000C94340011241FBECFE5D4E0DEBFCDBF29
:100060000E9423040C94F9040C94000081E58DB9DE
:1000700008958FB9779BFECF0895DB98D9988FB9F3
:10008000779BFECFDB9A0895DB98D99A8FB9779B3F
:10009000FECFDB9A089580E40E943D0081EA0E9431
:1000A0003D0080EC0E943D0084EA0E943D0086EA0B
:1000B0000E943D0088E094E20197F1F782EA0E94F5
:1000C0003D008FE20E943D0087E20E943D0081E8F2
:1000D0000E943D0080E10E943D008AEF0E943D00A9
:1000E00080E90E943D008FEA0E943D0081E0089572
:1000F000883008F080E0806B0E943D0081E0089528
:100100001F93182F873608F010E0812F8F700E9400
:100110003D0012951F70812F80610E943D0081E09B
:100120001F9108950F931F93162F042F0E9478009C
:10013000812F0E948000802F0E9444001F910F9108
:1001400008951F93162F0E947800812F0E9480002F
:1001500080E00E9444001F9108950F931F9300E0D8
:100160000FC0802F0E947800812F0E94800080E0C5
:100170000E9444001F5F1636A1F70F5F073011F091
:1001800010E0EFCF1F910F91089581E58DB9DB98B5
:10019000DA9880E198E4FC013197F1F7DA9A019757
:1001A000F1F70E944B00D998DB9A0E94AD000895A8
:1001B000CF92DF92EF92FF921F93CF93DF937C0158
:1001C000EB016A01FC01108227C018821EC016953F
:1001D00016951695812F0E94780088810E948000D4
:1001E000888190E0FC0123E0EE0FFF1F2A95E1F7E4
:1001F000E81BF90BEC0DFD1DE10FF11D108280E0F5
:100200000E94440088818F5F88838881F701108174
:100210008636E8F21F5F1083F70180818034A8F2F0
:1002200080E2808383E38883DF91CF911F91FF90E9
:10023000EF90DF90CF9008952F923F924F925F9270
:100240006F927F928F929F92AF92BF92CF92DF92E6
:10025000EF92FF920F931F93DF93CF93CDB7DEB74B
:1002600029970FB6F894DEBF0FBECDBF7C0179870A
:1002700068875A010E94AD004424662455247724DF
:100280009924CC241F821E821D821C8210E022240D
:100290001B821A82198200E08824CC9906C0C7010B
:1002A00068857985A5010E94D80085E08815D8F475
:1002B000169516951695812F0E947800802F0E9422
:1002C0008000802F90E0FC0133E0EE0FFF1F3A9595
:1002D000E1F7E81BF90BEA0DFB1DE10FF11D1082A0
:1002E00080E00E944400992071F0662009F48AC0E1
:1002F000A885B9858C918F5F8C9384C0E885F9853A
:10030000808181508083CC2061F0552009F47EC02B
:10031000D7018C9181508C9379C0F70180818F5FD8
:1003200080839F9906C055245A9477249924CC241D
:10033000CA949E9906C0552477247A949924CC2493
:10034000CA94CE9906C044244A94662499249A9467
:10035000CC24CF9906C0442466246A9499249A94A4
:10036000CC24A885B9858C91863610F0E5E6EC930F
:10037000D7018C91803410F0EFE3EC93D701DC903F
:10038000E885F98530801D2D169516951695812FD7
:100390000E947800A885B9858C910E948000A8856C
:1003A000B985EC91B7E0EB9FF0011124EA0DFB1D3C
:1003B000E10FF11D2D2D277081E090E002C0880F24
:1003C000991F2A95E2F79C018081822B80830E94ED
:1003D000440086EF94E0E8EBF0E03197F1F7019705
:1003E000D1F7839409819A819983AB81AA832B8267
:1003F0001C81BD81BC83EE81ED83FF81FE83DF82A2
:10040000232C4BCF442009F079CF7DCF772009F002
:1004100084CF87CF0E94AD0083E063E34FEF0E945B
:10042000920008950E94AD0083E063E34FEF0E94C5
:10043000920083E065E34FEF0E94920008950E94CE
:10044000AD0083E063E34FEF0E94920083E065E339
:100450004FEF0E94920083E067E34FEF0E9492000B
:1004600008958C9A81EA8FBD89E48EBD8FEF90E06C
:100470009DBD8CBD1BBC1ABC99BD88BD86EF94E0A8
:1004800028EB30E0F9013197F1F70197D9F708959A
:10049000F8948CE085BF80E88BBF7894089580EC59
:1004A00087B987E886B9089587B187B9369A3699AA
:1004B000FECF84B195B1885B914010F4C19801C022
:1004C000C19A86B186B9089581E58DB9929A909ABC
:1004D0000895919880E198E40197F1F786E08FB94B
:1004E000779BFECF919A80E198E4FC013197F1F778
:1004F00091980197F1F782E08FB9779BFECF1FB8F3
:10050000779BFECF1FB8779BFECF6FB9779BFECF4F
:1005100080E198E4FC013197F1F7919A0197F1F7A6
:100520000895919880E198E40197F1F783E08FB9FD
:10053000779BFECF1FB8779BFECF1FB8779BFECF70
:100540001FB8779BFECF8FB1919AE0E1F8E4319725
:10055000F1F708950F931F93CF93DF93CFEFD0E080
:1005600008EB10E0C19ACC9B6997C530D10519F40E
:10057000C0E0D0E004C0D7FF02C0CFEFD0E0CD9BF9
:100580001AC09F9906C080E090E06C2F0E9469021B
:10059000C1989E9906C080E090E00E949102C82F09
:1005A000D0E0D9BDC8BD86EF94E0F8013197F1F7EE
:1005B0000197D9F7D7CFDF91CF911F910F91089570
:1005C0001F920F920FB60F9211242F933F934F93C8
:1005D0005F936F937F938F939F93AF93BF93EF93AB
:1005E000FF93999902C00E94AA02FF91EF91BF91D7
:1005F000AF919F918F917F916F915F914F913F91BB
:100600002F910F900FBE0F901F901895919880E139
:1006100098E40197F1F786E08FB9779BFECF919A26
:1006200080E198E4FC013197F1F791980197F1F797
:1006300082E08FB9779BFECF1FB8779BFECF81E01A
:100640008FB9779BFECF20E030E00DC080818FB95D
:10065000779BFECF9F5F37969636C1F72F5F3F4F50
:100660002730310529F0FB01E20FF31F90E0EECFB8
:1006700080E198E4FC013197F1F7919A0197F1F745
:10068000C19886EF99E028EB30E0F9013197F1F756
:100690000197D9F7C19A0895BC019198E0E1F8E477
:1006A0003197F1F783E08FB9779BFECF1FB8779B27
:1006B000FECF81E08FB9779BFECF20E030E00FC006
:1006C00080818FB9779BFECF8FB180834F5F379644
:1006D0004636B1F72F5F3F4F2730310529F0FB0138
:1006E000E20FF31F40E0ECCF919A80E198E401978C
:1006F000F1F70895CF92DF92FF920F931F93CF935C
:10070000DF936C01C0E0D0E014C08C2F0E94780011
:100710008F2D0E948000F80180810E944400F39494
:10072000095F1F4FF6E6FF1681F72196C730D10506
:1007300029F086010C0F1D1FFF24E7CFDF91CF9119
:100740001F910F91FF90DF90CF9008954F925F928D
:100750006F927F928F929F92AF92BF92CF92DF92D1
:10076000EF92FF920F931F93CF93DF936C01EB01F6
:100770005A010E94AD00C5010E944C03C5010E94B0
:100780007A03E5E64E2E7FE3572E67E0E62E51E032
:10079000652E712C48EB842E912CCC9905C0C60196
:1007A000BE01A5010E94D8009F9904C0F601808176
:1007B000815080839E9904C0F60180818F5F808381
:1007C000CE9903C0888181508883CF9903C08881E6
:1007D0008F5F88838881863608F04882F6018081A1
:1007E000803408F05082F6010081F02EF694F694E1
:1007F000F6948F2D0E94780088810E948000E88105
:10080000EE9DF0011124EA0DFB1DEF0DF11D0770A7
:10081000C30102C0880F991F0A95E2F78C018081FD
:10082000802B80830E94440086EF99E0F401319789
:10083000F1F70197D9F7CD99B0CF80E090E0B501FD
:100840000E940603AACF6F927F929F92AF92BF92AF
:10085000CF92DF92EF92FF920F931F93DF93CF938C
:10086000CDB7DEB7CE5CD2400FB6F894DEBF0FBE78
:10087000CDBFC19AB99A8C9AD098D39AD29AD19A6C
:10088000899A889A8A9ABD9ABE98BF9AC49ABC9A45
:10089000AF9AA798AE9AA698DE9AD698DF9AD7987C
:1008A000DD9AD598DC9AD498A99AA19880E2898398
:1008B00083E38A830E94C500F8948CE085BF80E8BA
:1008C0008BBF789412E0A12EB12CAC0EBD1EB3E00C
:1008D000EB2EF12CEC0EFD1E6E010894C11CD11CF8
:1008E000C601B501A7010E94D8000E94310280EC28
:1008F00087B987E886B981E58DB9929A909A11E017
:10090000C353DD4FB982A882CD5CD240C353DD4FC3
:100910009880CD5CD240C253DD4F0881CE5CD2407E
:10092000AE2CEF2CBC2CCD2CA8EB6A2E712C0E9487
:1009300054029F9903C0115009F413E09E9905C019
:100940001F5F143010F011E002C0113011F40E944A
:100950000A02123019F40E94120204C0133011F47A
:100960000E941F02CC993CC0113049F48B2D9C2D64
:10097000692D702F4A2D5E2D0E94A60331C01230C2
:1009800029F50FEFF8EBAF2EB12CC19ACC9B095192
:10099000053009F400E09F9906C080E090E0602FE8
:1009A0000E946902C1989E9905C080E090E00E9473
:1009B0009102082F802F90E099BD88BD86EF99E0C5
:1009C000F5013197F1F70197D9F7DFCF133041F4F3
:1009D0008B2D9C2D692D702F4A2D5E2D0E941C01A0
:1009E00086EF94E0F3013197F1F7019709F49FCF77
:0609F000F9CFF894FFCFDF
:00000001FF
